{
  "contractName": "BridgeB",
  "abi": [
    {
      "inputs": [
        {
          "internalType": "contract TokenB",
          "name": "_tokenContract",
          "type": "address"
        }
      ],
      "stateMutability": "nonpayable",
      "type": "constructor"
    },
    {
      "inputs": [],
      "name": "owner",
      "outputs": [
        {
          "internalType": "address",
          "name": "",
          "type": "address"
        }
      ],
      "stateMutability": "view",
      "type": "function"
    },
    {
      "inputs": [],
      "name": "tokenContract",
      "outputs": [
        {
          "internalType": "contract TokenB",
          "name": "",
          "type": "address"
        }
      ],
      "stateMutability": "view",
      "type": "function"
    },
    {
      "inputs": [
        {
          "internalType": "uint256",
          "name": "amount",
          "type": "uint256"
        }
      ],
      "name": "lockTokens",
      "outputs": [],
      "stateMutability": "nonpayable",
      "type": "function"
    },
    {
      "inputs": [
        {
          "internalType": "address",
          "name": "recipient",
          "type": "address"
        },
        {
          "internalType": "uint256",
          "name": "amount",
          "type": "uint256"
        }
      ],
      "name": "mintTokens",
      "outputs": [],
      "stateMutability": "nonpayable",
      "type": "function"
    }
  ],
  "bytecode": "0x608060405234801561001057600080fd5b5060405161082b38038061082b8339818101604052810190610032919061012e565b806000806101000a81548173ffffffffffffffffffffffffffffffffffffffff021916908373ffffffffffffffffffffffffffffffffffffffff16021790555033600160006101000a81548173ffffffffffffffffffffffffffffffffffffffff021916908373ffffffffffffffffffffffffffffffffffffffff1602179055505061015b565b600080fd5b600073ffffffffffffffffffffffffffffffffffffffff82169050919050565b60006100e9826100be565b9050919050565b60006100fb826100de565b9050919050565b61010b816100f0565b811461011657600080fd5b50565b60008151905061012881610102565b92915050565b600060208284031215610144576101436100b9565b5b600061015284828501610119565b91505092915050565b6106c18061016a6000396000f3fe608060405234801561001057600080fd5b506004361061004c5760003560e01c806355a373d6146100515780636e27d8891461006f5780638da5cb5b1461008b578063f0dda65c146100a9575b600080fd5b6100596100c5565b60405161006691906103a3565b60405180910390f35b610089600480360381019061008491906103f9565b6100e9565b005b6100936101cb565b6040516100a09190610447565b60405180910390f35b6100c360048036038101906100be919061048e565b6101f1565b005b60008054906101000a900473ffffffffffffffffffffffffffffffffffffffff1681565b60008054906101000a900473ffffffffffffffffffffffffffffffffffffffff1673ffffffffffffffffffffffffffffffffffffffff166323b872dd3330846040518463ffffffff1660e01b8152600401610146939291906104dd565b6020604051808303816000875af1158015610165573d6000803e3d6000fd5b505050506040513d601f19601f82011682018060405250810190610189919061054c565b6101c8576040517f08c379a00000000000000000000000000000000000000000000000000000000081526004016101bf906105d6565b60405180910390fd5b50565b600160009054906101000a900473ffffffffffffffffffffffffffffffffffffffff1681565b600160009054906101000a900473ffffffffffffffffffffffffffffffffffffffff1673ffffffffffffffffffffffffffffffffffffffff163373ffffffffffffffffffffffffffffffffffffffff1614610281576040517f08c379a000000000000000000000000000000000000000000000000000000000815260040161027890610642565b60405180910390fd5b60008054906101000a900473ffffffffffffffffffffffffffffffffffffffff1673ffffffffffffffffffffffffffffffffffffffff1663a9059cbb83836040518363ffffffff1660e01b81526004016102dc929190610662565b6020604051808303816000875af11580156102fb573d6000803e3d6000fd5b505050506040513d601f19601f8201168201806040525081019061031f919061054c565b505050565b600073ffffffffffffffffffffffffffffffffffffffff82169050919050565b6000819050919050565b600061036961036461035f84610324565b610344565b610324565b9050919050565b600061037b8261034e565b9050919050565b600061038d82610370565b9050919050565b61039d81610382565b82525050565b60006020820190506103b86000830184610394565b92915050565b600080fd5b6000819050919050565b6103d6816103c3565b81146103e157600080fd5b50565b6000813590506103f3816103cd565b92915050565b60006020828403121561040f5761040e6103be565b5b600061041d848285016103e4565b91505092915050565b600061043182610324565b9050919050565b61044181610426565b82525050565b600060208201905061045c6000830184610438565b92915050565b61046b81610426565b811461047657600080fd5b50565b60008135905061048881610462565b92915050565b600080604083850312156104a5576104a46103be565b5b60006104b385828601610479565b92505060206104c4858286016103e4565b9150509250929050565b6104d7816103c3565b82525050565b60006060820190506104f26000830186610438565b6104ff6020830185610438565b61050c60408301846104ce565b949350505050565b60008115159050919050565b61052981610514565b811461053457600080fd5b50565b60008151905061054681610520565b92915050565b600060208284031215610562576105616103be565b5b600061057084828501610537565b91505092915050565b600082825260208201905092915050565b7f5472616e73666572206661696c65640000000000000000000000000000000000600082015250565b60006105c0600f83610579565b91506105cb8261058a565b602082019050919050565b600060208201905081810360008301526105ef816105b3565b9050919050565b7f4f6e6c79206f776e65722063616e206d696e7420746f6b656e73000000000000600082015250565b600061062c601a83610579565b9150610637826105f6565b602082019050919050565b6000602082019050818103600083015261065b8161061f565b9050919050565b60006040820190506106776000830185610438565b61068460208301846104ce565b939250505056fea264697066735822122095b647f49cf7c963dc6f298ef410383eb2efdbedb0ee83f09e02c3e8d78a124c64736f6c634300080d0033",
  "immutableReferences": {},
  "source": "// SPDX-License-Identifier: MIT\r\npragma solidity ^0.8.0;\r\n\r\nimport \"./TokenB.sol\";\r\n\r\ncontract BridgeB {\r\n    TokenB public tokenContract;\r\n    address public owner;\r\n\r\n    constructor(TokenB _tokenContract) {\r\n        tokenContract = _tokenContract;\r\n        owner = msg.sender;\r\n    }\r\n\r\n    function lockTokens(uint256 amount) external {\r\n        require(\r\n            tokenContract.transferFrom(msg.sender, address(this), amount),\r\n            \"Transfer failed\"\r\n        );\r\n    }\r\n\r\n    function mintTokens(address recipient, uint256 amount) external {\r\n        require(msg.sender == owner, \"Only owner can mint tokens\");\r\n        tokenContract.transfer(recipient, amount);\r\n    }\r\n}\r\n",
  "sourcePath": "C:\\Users\\angel\\CrossChainBridge\\contracts\\BridgeB.sol",
  "compiler": {
    "name": "solc",
    "version": "0.8.13+commit.abaa5c0e.Emscripten.clang"
  },
  "schemaVersion": "3.4.16",
  "updatedAt": "2023-09-30T19:40:19.669Z",
  "devdoc": {
    "kind": "dev",
    "methods": {},
    "version": 1
  },
  "userdoc": {
    "kind": "user",
    "methods": {},
    "version": 1
  }
}